{
    "contractName": "Treedefi",
    "abi": [
        {
            "inputs": [
                {
                    "internalType": "string",
                    "name": "_URI",
                    "type": "string"
                }
            ],
            "payable": false,
            "stateMutability": "nonpayable",
            "type": "constructor"
        },
        {
            "anonymous": false,
            "inputs": [
                {
                    "indexed": true,
                    "internalType": "address",
                    "name": "owner",
                    "type": "address"
                },
                {
                    "indexed": true,
                    "internalType": "address",
                    "name": "approved",
                    "type": "address"
                },
                {
                    "indexed": true,
                    "internalType": "uint256",
                    "name": "tokenId",
                    "type": "uint256"
                }
            ],
            "name": "Approval",
            "type": "event"
        },
        {
            "anonymous": false,
            "inputs": [
                {
                    "indexed": true,
                    "internalType": "address",
                    "name": "owner",
                    "type": "address"
                },
                {
                    "indexed": true,
                    "internalType": "address",
                    "name": "operator",
                    "type": "address"
                },
                {
                    "indexed": false,
                    "internalType": "bool",
                    "name": "approved",
                    "type": "bool"
                }
            ],
            "name": "ApprovalForAll",
            "type": "event"
        },
        {
            "anonymous": false,
            "inputs": [
                {
                    "indexed": true,
                    "internalType": "address",
                    "name": "from",
                    "type": "address"
                },
                {
                    "indexed": true,
                    "internalType": "address",
                    "name": "to",
                    "type": "address"
                },
                {
                    "indexed": true,
                    "internalType": "uint256",
                    "name": "tokenId",
                    "type": "uint256"
                }
            ],
            "name": "Transfer",
            "type": "event"
        },
        {
            "constant": true,
            "inputs": [
                {
                    "internalType": "string",
                    "name": "",
                    "type": "string"
                }
            ],
            "name": "_isExists",
            "outputs": [
                {
                    "internalType": "bool",
                    "name": "",
                    "type": "bool"
                }
            ],
            "payable": false,
            "stateMutability": "view",
            "type": "function"
        },
        {
            "constant": true,
            "inputs": [
                {
                    "internalType": "uint256",
                    "name": "",
                    "type": "uint256"
                }
            ],
            "name": "_treeData",
            "outputs": [
                {
                    "internalType": "string",
                    "name": "name",
                    "type": "string"
                },
                {
                    "internalType": "string",
                    "name": "scientificName",
                    "type": "string"
                },
                {
                    "internalType": "string",
                    "name": "dateOfBirth",
                    "type": "string"
                },
                {
                    "internalType": "string",
                    "name": "country",
                    "type": "string"
                },
                {
                    "internalType": "string",
                    "name": "placeOfBirth",
                    "type": "string"
                },
                {
                    "internalType": "string",
                    "name": "placeOfResidence",
                    "type": "string"
                },
                {
                    "internalType": "string",
                    "name": "longitude",
                    "type": "string"
                },
                {
                    "internalType": "string",
                    "name": "latitude",
                    "type": "string"
                },
                {
                    "internalType": "string",
                    "name": "treeId",
                    "type": "string"
                },
                {
                    "internalType": "string",
                    "name": "url",
                    "type": "string"
                },
                {
                    "internalType": "string",
                    "name": "imgURL",
                    "type": "string"
                }
            ],
            "payable": false,
            "stateMutability": "view",
            "type": "function"
        },
        {
            "constant": false,
            "inputs": [
                {
                    "internalType": "address",
                    "name": "to",
                    "type": "address"
                },
                {
                    "internalType": "uint256",
                    "name": "tokenId",
                    "type": "uint256"
                }
            ],
            "name": "approve",
            "outputs": [],
            "payable": false,
            "stateMutability": "nonpayable",
            "type": "function"
        },
        {
            "constant": true,
            "inputs": [
                {
                    "internalType": "address",
                    "name": "owner",
                    "type": "address"
                }
            ],
            "name": "balanceOf",
            "outputs": [
                {
                    "internalType": "uint256",
                    "name": "",
                    "type": "uint256"
                }
            ],
            "payable": false,
            "stateMutability": "view",
            "type": "function"
        },
        {
            "constant": true,
            "inputs": [
                {
                    "internalType": "uint256",
                    "name": "tokenId",
                    "type": "uint256"
                }
            ],
            "name": "getApproved",
            "outputs": [
                {
                    "internalType": "address",
                    "name": "",
                    "type": "address"
                }
            ],
            "payable": false,
            "stateMutability": "view",
            "type": "function"
        },
        {
            "constant": true,
            "inputs": [
                {
                    "internalType": "address",
                    "name": "owner",
                    "type": "address"
                },
                {
                    "internalType": "address",
                    "name": "operator",
                    "type": "address"
                }
            ],
            "name": "isApprovedForAll",
            "outputs": [
                {
                    "internalType": "bool",
                    "name": "",
                    "type": "bool"
                }
            ],
            "payable": false,
            "stateMutability": "view",
            "type": "function"
        },
        {
            "constant": true,
            "inputs": [],
            "name": "name",
            "outputs": [
                {
                    "internalType": "string",
                    "name": "",
                    "type": "string"
                }
            ],
            "payable": false,
            "stateMutability": "view",
            "type": "function"
        },
        {
            "constant": true,
            "inputs": [
                {
                    "internalType": "uint256",
                    "name": "tokenId",
                    "type": "uint256"
                }
            ],
            "name": "ownerOf",
            "outputs": [
                {
                    "internalType": "address",
                    "name": "",
                    "type": "address"
                }
            ],
            "payable": false,
            "stateMutability": "view",
            "type": "function"
        },
        {
            "constant": false,
            "inputs": [
                {
                    "internalType": "address",
                    "name": "from",
                    "type": "address"
                },
                {
                    "internalType": "address",
                    "name": "to",
                    "type": "address"
                },
                {
                    "internalType": "uint256",
                    "name": "tokenId",
                    "type": "uint256"
                }
            ],
            "name": "safeTransferFrom",
            "outputs": [],
            "payable": false,
            "stateMutability": "nonpayable",
            "type": "function"
        },
        {
            "constant": false,
            "inputs": [
                {
                    "internalType": "address",
                    "name": "from",
                    "type": "address"
                },
                {
                    "internalType": "address",
                    "name": "to",
                    "type": "address"
                },
                {
                    "internalType": "uint256",
                    "name": "tokenId",
                    "type": "uint256"
                },
                {
                    "internalType": "bytes",
                    "name": "_data",
                    "type": "bytes"
                }
            ],
            "name": "safeTransferFrom",
            "outputs": [],
            "payable": false,
            "stateMutability": "nonpayable",
            "type": "function"
        },
        {
            "constant": false,
            "inputs": [
                {
                    "internalType": "address",
                    "name": "to",
                    "type": "address"
                },
                {
                    "internalType": "bool",
                    "name": "approved",
                    "type": "bool"
                }
            ],
            "name": "setApprovalForAll",
            "outputs": [],
            "payable": false,
            "stateMutability": "nonpayable",
            "type": "function"
        },
        {
            "constant": true,
            "inputs": [
                {
                    "internalType": "bytes4",
                    "name": "interfaceId",
                    "type": "bytes4"
                }
            ],
            "name": "supportsInterface",
            "outputs": [
                {
                    "internalType": "bool",
                    "name": "",
                    "type": "bool"
                }
            ],
            "payable": false,
            "stateMutability": "view",
            "type": "function"
        },
        {
            "constant": true,
            "inputs": [],
            "name": "symbol",
            "outputs": [
                {
                    "internalType": "string",
                    "name": "",
                    "type": "string"
                }
            ],
            "payable": false,
            "stateMutability": "view",
            "type": "function"
        },
        {
            "constant": true,
            "inputs": [
                {
                    "internalType": "uint256",
                    "name": "index",
                    "type": "uint256"
                }
            ],
            "name": "tokenByIndex",
            "outputs": [
                {
                    "internalType": "uint256",
                    "name": "",
                    "type": "uint256"
                }
            ],
            "payable": false,
            "stateMutability": "view",
            "type": "function"
        },
        {
            "constant": true,
            "inputs": [
                {
                    "internalType": "address",
                    "name": "owner",
                    "type": "address"
                },
                {
                    "internalType": "uint256",
                    "name": "index",
                    "type": "uint256"
                }
            ],
            "name": "tokenOfOwnerByIndex",
            "outputs": [
                {
                    "internalType": "uint256",
                    "name": "",
                    "type": "uint256"
                }
            ],
            "payable": false,
            "stateMutability": "view",
            "type": "function"
        },
        {
            "constant": true,
            "inputs": [],
            "name": "totalSupply",
            "outputs": [
                {
                    "internalType": "uint256",
                    "name": "",
                    "type": "uint256"
                }
            ],
            "payable": false,
            "stateMutability": "view",
            "type": "function"
        },
        {
            "constant": false,
            "inputs": [
                {
                    "internalType": "address",
                    "name": "from",
                    "type": "address"
                },
                {
                    "internalType": "address",
                    "name": "to",
                    "type": "address"
                },
                {
                    "internalType": "uint256",
                    "name": "tokenId",
                    "type": "uint256"
                }
            ],
            "name": "transferFrom",
            "outputs": [],
            "payable": false,
            "stateMutability": "nonpayable",
            "type": "function"
        },
        {
            "constant": true,
            "inputs": [],
            "name": "getOwner",
            "outputs": [
                {
                    "internalType": "address",
                    "name": "",
                    "type": "address"
                }
            ],
            "payable": false,
            "stateMutability": "view",
            "type": "function"
        },
        {
            "constant": true,
            "inputs": [
                {
                    "internalType": "uint256",
                    "name": "tokenId",
                    "type": "uint256"
                }
            ],
            "name": "tokenURI",
            "outputs": [
                {
                    "internalType": "string",
                    "name": "",
                    "type": "string"
                }
            ],
            "payable": false,
            "stateMutability": "view",
            "type": "function"
        },
        {
            "constant": false,
            "inputs": [
                {
                    "internalType": "string",
                    "name": "_URI",
                    "type": "string"
                }
            ],
            "name": "setBaseURI",
            "outputs": [],
            "payable": false,
            "stateMutability": "nonpayable",
            "type": "function"
        },
        {
            "constant": false,
            "inputs": [
                {
                    "components": [
                        {
                            "internalType": "string",
                            "name": "name",
                            "type": "string"
                        },
                        {
                            "internalType": "string",
                            "name": "scientificName",
                            "type": "string"
                        },
                        {
                            "internalType": "string",
                            "name": "dateOfBirth",
                            "type": "string"
                        },
                        {
                            "internalType": "string",
                            "name": "country",
                            "type": "string"
                        },
                        {
                            "internalType": "string",
                            "name": "placeOfBirth",
                            "type": "string"
                        },
                        {
                            "internalType": "string",
                            "name": "placeOfResidence",
                            "type": "string"
                        },
                        {
                            "internalType": "string",
                            "name": "longitude",
                            "type": "string"
                        },
                        {
                            "internalType": "string",
                            "name": "latitude",
                            "type": "string"
                        },
                        {
                            "internalType": "string",
                            "name": "treeId",
                            "type": "string"
                        },
                        {
                            "internalType": "string",
                            "name": "url",
                            "type": "string"
                        },
                        {
                            "internalType": "string",
                            "name": "imgURL",
                            "type": "string"
                        }
                    ],
                    "internalType": "struct Treedefi.Tree",
                    "name": "_tree",
                    "type": "tuple"
                }
            ],
            "name": "mint",
            "outputs": [],
            "payable": false,
            "stateMutability": "nonpayable",
            "type": "function"
        }
    ],
    "bytecode": "0x60806040523480156200001157600080fd5b50604051620042a3380380620042a383398181016040526200003791908101906200037f565b6040518060400160405280600f81526020017f547265656465666920466f7265737400000000000000000000000000000000008152506040518060400160405280600681526020017f464f5245535400000000000000000000000000000000000000000000000000008152508181620000bd6301ffc9a760e01b6200019c60201b60201c565b620000d56380ac58cd60e01b6200019c60201b60201c565b620000ed63780e9d6360e01b6200019c60201b60201c565b81600990805190602001906200010592919062000274565b5080600a90805190602001906200011e92919062000274565b5062000137635b5e139f60e01b6200019c60201b60201c565b5050505033600e60006101000a81548173ffffffffffffffffffffffffffffffffffffffff021916908373ffffffffffffffffffffffffffffffffffffffff16021790555080601090805190602001906200019492919062000274565b5050620004ca565b63ffffffff60e01b817bffffffffffffffffffffffffffffffffffffffffffffffffffffffff1916141562000208576040517f08c379a0000000000000000000000000000000000000000000000000000000008152600401620001ff9062000406565b60405180910390fd5b6001600080837bffffffffffffffffffffffffffffffffffffffffffffffffffffffff19167bffffffffffffffffffffffffffffffffffffffffffffffffffffffff1916815260200190815260200160002060006101000a81548160ff02191690831515021790555050565b828054600181600116156101000203166002900490600052602060002090601f016020900481019282601f10620002b757805160ff1916838001178555620002e8565b82800160010185558215620002e8579182015b82811115620002e7578251825591602001919060010190620002ca565b5b509050620002f79190620002fb565b5090565b6200032091905b808211156200031c57600081600090555060010162000302565b5090565b90565b600082601f8301126200033557600080fd5b81516200034c620003468262000456565b62000428565b915080825260208301602083018583830111156200036957600080fd5b6200037683828462000494565b50505092915050565b6000602082840312156200039257600080fd5b600082015167ffffffffffffffff811115620003ad57600080fd5b620003bb8482850162000323565b91505092915050565b6000620003d3601c8362000483565b91507f4245503136353a20696e76616c696420696e74657266616365206964000000006000830152602082019050919050565b600060208201905081810360008301526200042181620003c4565b9050919050565b6000604051905081810181811067ffffffffffffffff821117156200044c57600080fd5b8060405250919050565b600067ffffffffffffffff8211156200046e57600080fd5b601f19601f8301169050602081019050919050565b600082825260208201905092915050565b60005b83811015620004b457808201518184015260208101905062000497565b83811115620004c4576000848401525b50505050565b613dc980620004da6000396000f3fe608060405234801561001057600080fd5b50600436106101375760003560e01c80636352211e116100b8578063a22cb4651161007c578063a22cb46514610360578063b88d4fde1461037c578063c87b56dd14610398578063dee5b3e0146103c8578063e54d592f14610402578063e985e9c51461043257610137565b80636352211e146102a857806370a08231146102d85780637b882cff14610308578063893d20e81461032457806395d89b411461034257610137565b806323b872dd116100ff57806323b872dd146101f45780632f745c591461021057806342842e0e146102405780634f6ccce71461025c57806355f804b31461028c57610137565b806301ffc9a71461013c57806306fdde031461016c578063081812fc1461018a578063095ea7b3146101ba57806318160ddd146101d6575b600080fd5b61015660048036036101519190810190612d2a565b610462565b604051610163919061375e565b60405180910390f35b6101746104c9565b6040516101819190613779565b60405180910390f35b6101a4600480360361019f9190810190612e3f565b61056b565b6040516101b191906136f7565b60405180910390f35b6101d460048036036101cf9190810190612cee565b6105f0565b005b6101de61079d565b6040516101eb9190613b13565b60405180910390f35b61020e60048036036102099190810190612be8565b6107aa565b005b61022a60048036036102259190810190612cee565b610803565b6040516102379190613b13565b60405180910390f35b61025a60048036036102559190810190612be8565b6108ac565b005b61027660048036036102719190810190612e3f565b6108cc565b6040516102839190613b13565b60405180910390f35b6102a660048036036102a19190810190612dbd565b610936565b005b6102c260048036036102bd9190810190612e3f565b6109e0565b6040516102cf91906136f7565b60405180910390f35b6102f260048036036102ed9190810190612b83565b610a92565b6040516102ff9190613b13565b60405180910390f35b610322600480360361031d9190810190612dfe565b610b51565b005b61032c610e0a565b60405161033991906136f7565b60405180910390f35b61034a610e34565b6040516103579190613779565b60405180910390f35b61037a60048036036103759190810190612cb2565b610ed6565b005b61039660048036036103919190810190612c37565b611042565b005b6103b260048036036103ad9190810190612e3f565b61109e565b6040516103bf9190613779565b60405180910390f35b6103e260048036036103dd9190810190612e3f565b6111a7565b6040516103f99b9a9998979695949392919061379b565b60405180910390f35b61041c60048036036104179190810190612d7c565b611889565b604051610429919061375e565b60405180910390f35b61044c60048036036104479190810190612bac565b6118bf565b604051610459919061375e565b60405180910390f35b6000806000837bffffffffffffffffffffffffffffffffffffffffffffffffffffffff19167bffffffffffffffffffffffffffffffffffffffffffffffffffffffff1916815260200190815260200160002060009054906101000a900460ff169050919050565b606060098054600181600116156101000203166002900480601f0160208091040260200160405190810160405280929190818152602001828054600181600116156101000203166002900480156105615780601f1061053657610100808354040283529160200191610561565b820191906000526020600020905b81548152906001019060200180831161054457829003601f168201915b5050505050905090565b600061057682611953565b6105b5576040517f08c379a00000000000000000000000000000000000000000000000000000000081526004016105ac90613953565b60405180910390fd5b6002600083815260200190815260200160002060009054906101000a900473ffffffffffffffffffffffffffffffffffffffff169050919050565b60006105fb826109e0565b90508073ffffffffffffffffffffffffffffffffffffffff168373ffffffffffffffffffffffffffffffffffffffff16141561066c576040517f08c379a000000000000000000000000000000000000000000000000000000000815260040161066390613a13565b60405180910390fd5b8073ffffffffffffffffffffffffffffffffffffffff163373ffffffffffffffffffffffffffffffffffffffff1614806106ac57506106ab81336118bf565b5b6106eb576040517f08c379a00000000000000000000000000000000000000000000000000000000081526004016106e290613af3565b60405180910390fd5b826002600084815260200190815260200160002060006101000a81548173ffffffffffffffffffffffffffffffffffffffff021916908373ffffffffffffffffffffffffffffffffffffffff160217905550818373ffffffffffffffffffffffffffffffffffffffff168273ffffffffffffffffffffffffffffffffffffffff167f8c5be1e5ebec7d5bd14f71427d1e84f3dd0314c0f7b2291e5b200ac8c7c3b92560405160405180910390a4505050565b6000600780549050905090565b6107b433826119c5565b6107f3576040517f08c379a00000000000000000000000000000000000000000000000000000000081526004016107ea906138f3565b60405180910390fd5b6107fe838383611aa3565b505050565b600061080e83610a92565b821061084f576040517f08c379a000000000000000000000000000000000000000000000000000000000815260040161084690613a93565b60405180910390fd5b600560008473ffffffffffffffffffffffffffffffffffffffff1673ffffffffffffffffffffffffffffffffffffffff168152602001908152602001600020828154811061089957fe5b9060005260206000200154905092915050565b6108c783838360405180602001604052806000815250611042565b505050565b60006108d661079d565b8210610917576040517f08c379a000000000000000000000000000000000000000000000000000000000815260040161090e906139f3565b60405180910390fd5b6007828154811061092457fe5b90600052602060002001549050919050565b600e60009054906101000a900473ffffffffffffffffffffffffffffffffffffffff1673ffffffffffffffffffffffffffffffffffffffff163373ffffffffffffffffffffffffffffffffffffffff16146109c6576040517f08c379a00000000000000000000000000000000000000000000000000000000081526004016109bd90613933565b60405180910390fd5b80601090805190602001906109dc9291906126bd565b5050565b6000806001600084815260200190815260200160002060009054906101000a900473ffffffffffffffffffffffffffffffffffffffff169050600073ffffffffffffffffffffffffffffffffffffffff168173ffffffffffffffffffffffffffffffffffffffff161415610a89576040517f08c379a0000000000000000000000000000000000000000000000000000000008152600401610a8090613993565b60405180910390fd5b80915050919050565b60008073ffffffffffffffffffffffffffffffffffffffff168273ffffffffffffffffffffffffffffffffffffffff161415610b03576040517f08c379a0000000000000000000000000000000000000000000000000000000008152600401610afa906138d3565b60405180910390fd5b610b4a600360008473ffffffffffffffffffffffffffffffffffffffff1673ffffffffffffffffffffffffffffffffffffffff168152602001908152602001600020611ac7565b9050919050565b600e60009054906101000a900473ffffffffffffffffffffffffffffffffffffffff1673ffffffffffffffffffffffffffffffffffffffff163373ffffffffffffffffffffffffffffffffffffffff1614610be1576040517f08c379a0000000000000000000000000000000000000000000000000000000008152600401610bd890613893565b60405180910390fd5b600c816101000151604051610bf691906136e0565b908152602001604051809103902060009054906101000a900460ff1615610c52576040517f08c379a0000000000000000000000000000000000000000000000000000000008152600401610c49906139d3565b60405180910390fd5b600f60008154809291906001019190505550610c7033600f54611ad5565b6001600c826101000151604051610c8791906136e0565b908152602001604051809103902060006101000a81548160ff02191690831515021790555080600d6000600f5481526020019081526020016000206000820151816000019080519060200190610cde92919061273d565b506020820151816001019080519060200190610cfb92919061273d565b506040820151816002019080519060200190610d1892919061273d565b506060820151816003019080519060200190610d3592919061273d565b506080820151816004019080519060200190610d5292919061273d565b5060a0820151816005019080519060200190610d6f92919061273d565b5060c0820151816006019080519060200190610d8c92919061273d565b5060e0820151816007019080519060200190610da992919061273d565b50610100820151816008019080519060200190610dc792919061273d565b50610120820151816009019080519060200190610de592919061273d565b5061014082015181600a019080519060200190610e0392919061273d565b5090505050565b6000600e60009054906101000a900473ffffffffffffffffffffffffffffffffffffffff16905090565b6060600a8054600181600116156101000203166002900480601f016020809104026020016040519081016040528092919081815260200182805460018160011615610100020316600290048015610ecc5780601f10610ea157610100808354040283529160200191610ecc565b820191906000526020600020905b815481529060010190602001808311610eaf57829003601f168201915b5050505050905090565b3373ffffffffffffffffffffffffffffffffffffffff168273ffffffffffffffffffffffffffffffffffffffff161415610f45576040517f08c379a0000000000000000000000000000000000000000000000000000000008152600401610f3c90613ad3565b60405180910390fd5b80600460003373ffffffffffffffffffffffffffffffffffffffff1673ffffffffffffffffffffffffffffffffffffffff16815260200190815260200160002060008473ffffffffffffffffffffffffffffffffffffffff1673ffffffffffffffffffffffffffffffffffffffff16815260200190815260200160002060006101000a81548160ff0219169083151502179055508173ffffffffffffffffffffffffffffffffffffffff163373ffffffffffffffffffffffffffffffffffffffff167f17307eab39ab6107e8899845ad3d59bd9653f200f220920489ca2b5937696c3183604051611036919061375e565b60405180910390a35050565b61104d8484846107aa565b61105984848484611af6565b611098576040517f08c379a000000000000000000000000000000000000000000000000000000000815260040161108f90613a33565b60405180910390fd5b50505050565b60606110a982611953565b6110e8576040517f08c379a00000000000000000000000000000000000000000000000000000000081526004016110df90613a73565b60405180910390fd5b60606110f383611c0d565b9050606061119b60108054600181600116156101000203166002900480601f0160208091040260200160405190810160405280929190818152602001828054600181600116156101000203166002900480156111905780601f1061116557610100808354040283529160200191611190565b820191906000526020600020905b81548152906001019060200180831161117357829003601f168201915b505050505083611d7c565b90508092505050919050565b600d602052806000526040600020600091509050806000018054600181600116156101000203166002900480601f0160208091040260200160405190810160405280929190818152602001828054600181600116156101000203166002900480156112535780601f1061122857610100808354040283529160200191611253565b820191906000526020600020905b81548152906001019060200180831161123657829003601f168201915b505050505090806001018054600181600116156101000203166002900480601f0160208091040260200160405190810160405280929190818152602001828054600181600116156101000203166002900480156112f15780601f106112c6576101008083540402835291602001916112f1565b820191906000526020600020905b8154815290600101906020018083116112d457829003601f168201915b505050505090806002018054600181600116156101000203166002900480601f01602080910402602001604051908101604052809291908181526020018280546001816001161561010002031660029004801561138f5780601f106113645761010080835404028352916020019161138f565b820191906000526020600020905b81548152906001019060200180831161137257829003601f168201915b505050505090806003018054600181600116156101000203166002900480601f01602080910402602001604051908101604052809291908181526020018280546001816001161561010002031660029004801561142d5780601f106114025761010080835404028352916020019161142d565b820191906000526020600020905b81548152906001019060200180831161141057829003601f168201915b505050505090806004018054600181600116156101000203166002900480601f0160208091040260200160405190810160405280929190818152602001828054600181600116156101000203166002900480156114cb5780601f106114a0576101008083540402835291602001916114cb565b820191906000526020600020905b8154815290600101906020018083116114ae57829003601f168201915b505050505090806005018054600181600116156101000203166002900480601f0160208091040260200160405190810160405280929190818152602001828054600181600116156101000203166002900480156115695780601f1061153e57610100808354040283529160200191611569565b820191906000526020600020905b81548152906001019060200180831161154c57829003601f168201915b505050505090806006018054600181600116156101000203166002900480601f0160208091040260200160405190810160405280929190818152602001828054600181600116156101000203166002900480156116075780601f106115dc57610100808354040283529160200191611607565b820191906000526020600020905b8154815290600101906020018083116115ea57829003601f168201915b505050505090806007018054600181600116156101000203166002900480601f0160208091040260200160405190810160405280929190818152602001828054600181600116156101000203166002900480156116a55780601f1061167a576101008083540402835291602001916116a5565b820191906000526020600020905b81548152906001019060200180831161168857829003601f168201915b505050505090806008018054600181600116156101000203166002900480601f0160208091040260200160405190810160405280929190818152602001828054600181600116156101000203166002900480156117435780601f1061171857610100808354040283529160200191611743565b820191906000526020600020905b81548152906001019060200180831161172657829003601f168201915b505050505090806009018054600181600116156101000203166002900480601f0160208091040260200160405190810160405280929190818152602001828054600181600116156101000203166002900480156117e15780601f106117b6576101008083540402835291602001916117e1565b820191906000526020600020905b8154815290600101906020018083116117c457829003601f168201915b50505050509080600a018054600181600116156101000203166002900480601f01602080910402602001604051908101604052809291908181526020018280546001816001161561010002031660029004801561187f5780601f106118545761010080835404028352916020019161187f565b820191906000526020600020905b81548152906001019060200180831161186257829003601f168201915b505050505090508b565b600c818051602081018201805184825260208301602085012081835280955050505050506000915054906101000a900460ff1681565b6000600460008473ffffffffffffffffffffffffffffffffffffffff1673ffffffffffffffffffffffffffffffffffffffff16815260200190815260200160002060008373ffffffffffffffffffffffffffffffffffffffff1673ffffffffffffffffffffffffffffffffffffffff16815260200190815260200160002060009054906101000a900460ff16905092915050565b6000806001600084815260200190815260200160002060009054906101000a900473ffffffffffffffffffffffffffffffffffffffff169050600073ffffffffffffffffffffffffffffffffffffffff168173ffffffffffffffffffffffffffffffffffffffff161415915050919050565b60006119d082611953565b611a0f576040517f08c379a0000000000000000000000000000000000000000000000000000000008152600401611a06906139b3565b60405180910390fd5b6000611a1a836109e0565b90508073ffffffffffffffffffffffffffffffffffffffff168473ffffffffffffffffffffffffffffffffffffffff161480611a8957508373ffffffffffffffffffffffffffffffffffffffff16611a718461056b565b73ffffffffffffffffffffffffffffffffffffffff16145b80611a9a5750611a9981856118bf565b5b91505092915050565b611aae838383611ecb565b611ab883826120fa565b611ac28282612298565b505050565b600081600001549050919050565b611adf828261235f565b611ae98282612298565b611af281612511565b5050565b6000611b178473ffffffffffffffffffffffffffffffffffffffff1661255d565b611b245760019050611c05565b60008473ffffffffffffffffffffffffffffffffffffffff166341982fc8338887876040518563ffffffff1660e01b8152600401611b659493929190613712565b602060405180830381600087803b158015611b7f57600080fd5b505af1158015611b93573d6000803e3d6000fd5b505050506040513d601f19601f82011682018060405250611bb79190810190612d53565b905063150b7a0260e01b7bffffffffffffffffffffffffffffffffffffffffffffffffffffffff1916817bffffffffffffffffffffffffffffffffffffffffffffffffffffffff1916149150505b949350505050565b60608060206040519080825280601f01601f191660200182016040528015611c445781602001600182028038833980820191505090505b50905060008090505b6000841115611cbc576030600a8581611c6257fe5b060160f81b828281518110611c7357fe5b60200101907effffffffffffffffffffffffffffffffffffffffffffffffffffffffffffff1916908160001a905350600a8481611cac57fe5b0493508080600101915050611c4d565b606081806001900392506040519080825280601f01601f191660200182016040528015611cf85781602001600182028038833980820191505090505b50905060008090505b8151811015611d705783838060019003945081518110611d1d57fe5b602001015160f81c60f81b828281518110611d3457fe5b60200101907effffffffffffffffffffffffffffffffffffffffffffffffffffffffffffff1916908160001a9053508080600101915050611d01565b50809350505050919050565b60608083905060608390506000815111611d9257fe5b606081518351016040519080825280601f01601f191660200182016040528015611dcb5781602001600182028038833980820191505090505b5090506060819050600080600091505b8551821015611e4957858281518110611df057fe5b602001015160f81c60f81b838280600101935081518110611e0d57fe5b60200101907effffffffffffffffffffffffffffffffffffffffffffffffffffffffffffff1916908160001a9053508180600101925050611ddb565b600091505b8451821015611ebc57848281518110611e6357fe5b602001015160f81c60f81b838280600101935081518110611e8057fe5b60200101907effffffffffffffffffffffffffffffffffffffffffffffffffffffffffffff1916908160001a9053508180600101925050611e4e565b82965050505050505092915050565b8273ffffffffffffffffffffffffffffffffffffffff16611eeb826109e0565b73ffffffffffffffffffffffffffffffffffffffff1614611f41576040517f08c379a0000000000000000000000000000000000000000000000000000000008152600401611f3890613973565b60405180910390fd5b600073ffffffffffffffffffffffffffffffffffffffff168273ffffffffffffffffffffffffffffffffffffffff161415611fb1576040517f08c379a0000000000000000000000000000000000000000000000000000000008152600401611fa890613a53565b60405180910390fd5b611fba81612570565b612001600360008573ffffffffffffffffffffffffffffffffffffffff1673ffffffffffffffffffffffffffffffffffffffff16815260200190815260200160002061262e565b612048600360008473ffffffffffffffffffffffffffffffffffffffff1673ffffffffffffffffffffffffffffffffffffffff168152602001908152602001600020612651565b816001600083815260200190815260200160002060006101000a81548173ffffffffffffffffffffffffffffffffffffffff021916908373ffffffffffffffffffffffffffffffffffffffff160217905550808273ffffffffffffffffffffffffffffffffffffffff168473ffffffffffffffffffffffffffffffffffffffff167fddf252ad1be2c89b69c2b068fc378daa952ba7f163c4a11628f55a4df523b3ef60405160405180910390a4505050565b60006121526001600560008673ffffffffffffffffffffffffffffffffffffffff1673ffffffffffffffffffffffffffffffffffffffff1681526020019081526020016000208054905061266790919063ffffffff16565b905060006006600084815260200190815260200160002054905081811461223f576000600560008673ffffffffffffffffffffffffffffffffffffffff1673ffffffffffffffffffffffffffffffffffffffff16815260200190815260200160002083815481106121bf57fe5b9060005260206000200154905080600560008773ffffffffffffffffffffffffffffffffffffffff1673ffffffffffffffffffffffffffffffffffffffff168152602001908152602001600020838154811061221757fe5b9060005260206000200181905550816006600083815260200190815260200160002081905550505b600560008573ffffffffffffffffffffffffffffffffffffffff1673ffffffffffffffffffffffffffffffffffffffff16815260200190815260200160002080548091906001900361229191906127bd565b5050505050565b600560008373ffffffffffffffffffffffffffffffffffffffff1673ffffffffffffffffffffffffffffffffffffffff168152602001908152602001600020805490506006600083815260200190815260200160002081905550600560008373ffffffffffffffffffffffffffffffffffffffff1673ffffffffffffffffffffffffffffffffffffffff1681526020019081526020016000208190806001815401808255809150509060018203906000526020600020016000909192909190915055505050565b600073ffffffffffffffffffffffffffffffffffffffff168273ffffffffffffffffffffffffffffffffffffffff1614156123cf576040517f08c379a00000000000000000000000000000000000000000000000000000000081526004016123c690613913565b60405180910390fd5b6123d881611953565b15612418576040517f08c379a000000000000000000000000000000000000000000000000000000000815260040161240f90613ab3565b60405180910390fd5b816001600083815260200190815260200160002060006101000a81548173ffffffffffffffffffffffffffffffffffffffff021916908373ffffffffffffffffffffffffffffffffffffffff1602179055506124b1600360008473ffffffffffffffffffffffffffffffffffffffff1673ffffffffffffffffffffffffffffffffffffffff168152602001908152602001600020612651565b808273ffffffffffffffffffffffffffffffffffffffff16600073ffffffffffffffffffffffffffffffffffffffff167fddf252ad1be2c89b69c2b068fc378daa952ba7f163c4a11628f55a4df523b3ef60405160405180910390a45050565b6007805490506008600083815260200190815260200160002081905550600781908060018154018082558091505090600182039060005260206000200160009091929091909150555050565b600080823b905060008111915050919050565b600073ffffffffffffffffffffffffffffffffffffffff166002600083815260200190815260200160002060009054906101000a900473ffffffffffffffffffffffffffffffffffffffff1673ffffffffffffffffffffffffffffffffffffffff161461262b5760006002600083815260200190815260200160002060006101000a81548173ffffffffffffffffffffffffffffffffffffffff021916908373ffffffffffffffffffffffffffffffffffffffff1602179055505b50565b6126466001826000015461266790919063ffffffff16565b816000018190555050565b6001816000016000828254019250508190555050565b6000828211156126ac576040517f08c379a00000000000000000000000000000000000000000000000000000000081526004016126a3906138b3565b60405180910390fd5b600082840390508091505092915050565b828054600181600116156101000203166002900490600052602060002090601f016020900481019282601f106126fe57805160ff191683800117855561272c565b8280016001018555821561272c579182015b8281111561272b578251825591602001919060010190612710565b5b50905061273991906127e9565b5090565b828054600181600116156101000203166002900490600052602060002090601f016020900481019282601f1061277e57805160ff19168380011785556127ac565b828001600101855582156127ac579182015b828111156127ab578251825591602001919060010190612790565b5b5090506127b991906127e9565b5090565b8154818355818111156127e4578183600052602060002091820191016127e391906127e9565b5b505050565b61280b91905b808211156128075760008160009055506001016127ef565b5090565b90565b60008135905061281d81613d2a565b92915050565b60008135905061283281613d41565b92915050565b60008135905061284781613d58565b92915050565b60008151905061285c81613d58565b92915050565b600082601f83011261287357600080fd5b813561288661288182613b5b565b613b2e565b915080825260208301602083018583830111156128a257600080fd5b6128ad838284613cd7565b50505092915050565b600082601f8301126128c757600080fd5b81356128da6128d582613b87565b613b2e565b915080825260208301602083018583830111156128f657600080fd5b612901838284613cd7565b50505092915050565b600082601f83011261291b57600080fd5b813561292e61292982613bb3565b613b2e565b9150808252602083016020830185838301111561294a57600080fd5b612955838284613cd7565b50505092915050565b6000610160828403121561297157600080fd5b61297c610160613b2e565b9050600082013567ffffffffffffffff81111561299857600080fd5b6129a4848285016128b6565b600083015250602082013567ffffffffffffffff8111156129c457600080fd5b6129d0848285016128b6565b602083015250604082013567ffffffffffffffff8111156129f057600080fd5b6129fc848285016128b6565b604083015250606082013567ffffffffffffffff811115612a1c57600080fd5b612a28848285016128b6565b606083015250608082013567ffffffffffffffff811115612a4857600080fd5b612a54848285016128b6565b60808301525060a082013567ffffffffffffffff811115612a7457600080fd5b612a80848285016128b6565b60a08301525060c082013567ffffffffffffffff811115612aa057600080fd5b612aac848285016128b6565b60c08301525060e082013567ffffffffffffffff811115612acc57600080fd5b612ad8848285016128b6565b60e08301525061010082013567ffffffffffffffff811115612af957600080fd5b612b05848285016128b6565b6101008301525061012082013567ffffffffffffffff811115612b2757600080fd5b612b33848285016128b6565b6101208301525061014082013567ffffffffffffffff811115612b5557600080fd5b612b61848285016128b6565b6101408301525092915050565b600081359050612b7d81613d6f565b92915050565b600060208284031215612b9557600080fd5b6000612ba38482850161280e565b91505092915050565b60008060408385031215612bbf57600080fd5b6000612bcd8582860161280e565b9250506020612bde8582860161280e565b9150509250929050565b600080600060608486031215612bfd57600080fd5b6000612c0b8682870161280e565b9350506020612c1c8682870161280e565b9250506040612c2d86828701612b6e565b9150509250925092565b60008060008060808587031215612c4d57600080fd5b6000612c5b8782880161280e565b9450506020612c6c8782880161280e565b9350506040612c7d87828801612b6e565b925050606085013567ffffffffffffffff811115612c9a57600080fd5b612ca687828801612862565b91505092959194509250565b60008060408385031215612cc557600080fd5b6000612cd38582860161280e565b9250506020612ce485828601612823565b9150509250929050565b60008060408385031215612d0157600080fd5b6000612d0f8582860161280e565b9250506020612d2085828601612b6e565b9150509250929050565b600060208284031215612d3c57600080fd5b6000612d4a84828501612838565b91505092915050565b600060208284031215612d6557600080fd5b6000612d738482850161284d565b91505092915050565b600060208284031215612d8e57600080fd5b600082013567ffffffffffffffff811115612da857600080fd5b612db4848285016128b6565b91505092915050565b600060208284031215612dcf57600080fd5b600082013567ffffffffffffffff811115612de957600080fd5b612df58482850161290a565b91505092915050565b600060208284031215612e1057600080fd5b600082013567ffffffffffffffff811115612e2a57600080fd5b612e368482850161295e565b91505092915050565b600060208284031215612e5157600080fd5b6000612e5f84828501612b6e565b91505092915050565b612e7181613ca1565b82525050565b612e8081613c2d565b82525050565b612e8f81613c3f565b82525050565b6000612ea082613bdf565b612eaa8185613c00565b9350612eba818560208601613ce6565b612ec381613d19565b840191505092915050565b6000612ed982613bf5565b612ee38185613c11565b9350612ef3818560208601613ce6565b612efc81613d19565b840191505092915050565b6000612f1282613bea565b612f1c8185613c11565b9350612f2c818560208601613ce6565b612f3581613d19565b840191505092915050565b6000612f4b82613bea565b612f558185613c22565b9350612f65818560208601613ce6565b80840191505092915050565b6000612f7e602a83613c11565b91507f2054726565646566693a204f6e6c79204f776e65722063616e206d696e74207460008301527f686520746f6b656e7320000000000000000000000000000000000000000000006020830152604082019050919050565b6000612fe4601e83613c11565b91507f536166654d6174683a207375627472616374696f6e206f766572666c6f7700006000830152602082019050919050565b6000613024602a83613c11565b91507f4245503732313a2062616c616e636520717565727920666f7220746865207a6560008301527f726f2061646472657373000000000000000000000000000000000000000000006020830152604082019050919050565b600061308a603183613c11565b91507f4245503732313a207472616e736665722063616c6c6572206973206e6f74206f60008301527f776e6572206e6f7220617070726f7665640000000000000000000000000000006020830152604082019050919050565b60006130f0602083613c11565b91507f4245503732313a206d696e7420746f20746865207a65726f20616464726573736000830152602082019050919050565b6000613130602683613c11565b91507f2054726565646566693a204f6e6c79204f776e65722063616e2073657420626160008301527f73655552492000000000000000000000000000000000000000000000000000006020830152604082019050919050565b6000613196602c83613c11565b91507f4245503732313a20617070726f76656420717565727920666f72206e6f6e657860008301527f697374656e7420746f6b656e00000000000000000000000000000000000000006020830152604082019050919050565b60006131fc602983613c11565b91507f4245503732313a207472616e73666572206f6620746f6b656e2074686174206960008301527f73206e6f74206f776e00000000000000000000000000000000000000000000006020830152604082019050919050565b6000613262602983613c11565b91507f4245503732313a206f776e657220717565727920666f72206e6f6e657869737460008301527f656e7420746f6b656e00000000000000000000000000000000000000000000006020830152604082019050919050565b60006132c8602c83613c11565b91507f4245503732313a206f70657261746f7220717565727920666f72206e6f6e657860008301527f697374656e7420746f6b656e00000000000000000000000000000000000000006020830152604082019050919050565b600061332e603583613c11565b91507f2054726565646566693a20746f6b656e20776974682073696d696c617220747260008301527f656520494420616c7265616479206578697374732000000000000000000000006020830152604082019050919050565b6000613394602c83613c11565b91507f424550373231456e756d657261626c653a20676c6f62616c20696e646578206f60008301527f7574206f6620626f756e647300000000000000000000000000000000000000006020830152604082019050919050565b60006133fa602183613c11565b91507f4245503732313a20617070726f76616c20746f2063757272656e74206f776e6560008301527f72000000000000000000000000000000000000000000000000000000000000006020830152604082019050919050565b6000613460603283613c11565b91507f4245503732313a207472616e7366657220746f206e6f6e20424550373231526560008301527f63656976657220696d706c656d656e74657200000000000000000000000000006020830152604082019050919050565b60006134c6602483613c11565b91507f4245503732313a207472616e7366657220746f20746865207a65726f2061646460008301527f72657373000000000000000000000000000000000000000000000000000000006020830152604082019050919050565b600061352c603183613c11565b91507f204245503732314d657461646174613a2055524920717565727920666f72206e60008301527f6f6e6578697374656e7420746f6b656e200000000000000000000000000000006020830152604082019050919050565b6000613592602b83613c11565b91507f424550373231456e756d657261626c653a206f776e657220696e646578206f7560008301527f74206f6620626f756e64730000000000000000000000000000000000000000006020830152604082019050919050565b60006135f8601c83613c11565b91507f4245503732313a20746f6b656e20616c7265616479206d696e746564000000006000830152602082019050919050565b6000613638601983613c11565b91507f4245503732313a20617070726f766520746f2063616c6c6572000000000000006000830152602082019050919050565b6000613678603883613c11565b91507f4245503732313a20617070726f76652063616c6c6572206973206e6f74206f7760008301527f6e6572206e6f7220617070726f76656420666f7220616c6c00000000000000006020830152604082019050919050565b6136da81613c97565b82525050565b60006136ec8284612f40565b915081905092915050565b600060208201905061370c6000830184612e77565b92915050565b60006080820190506137276000830187612e68565b6137346020830186612e77565b61374160408301856136d1565b81810360608301526137538184612e95565b905095945050505050565b60006020820190506137736000830184612e86565b92915050565b600060208201905081810360008301526137938184612ece565b905092915050565b60006101608201905081810360008301526137b6818e612f07565b905081810360208301526137ca818d612f07565b905081810360408301526137de818c612f07565b905081810360608301526137f2818b612f07565b90508181036080830152613806818a612f07565b905081810360a083015261381a8189612f07565b905081810360c083015261382e8188612f07565b905081810360e08301526138428187612f07565b90508181036101008301526138578186612f07565b905081810361012083015261386c8185612f07565b90508181036101408301526138818184612f07565b90509c9b505050505050505050505050565b600060208201905081810360008301526138ac81612f71565b9050919050565b600060208201905081810360008301526138cc81612fd7565b9050919050565b600060208201905081810360008301526138ec81613017565b9050919050565b6000602082019050818103600083015261390c8161307d565b9050919050565b6000602082019050818103600083015261392c816130e3565b9050919050565b6000602082019050818103600083015261394c81613123565b9050919050565b6000602082019050818103600083015261396c81613189565b9050919050565b6000602082019050818103600083015261398c816131ef565b9050919050565b600060208201905081810360008301526139ac81613255565b9050919050565b600060208201905081810360008301526139cc816132bb565b9050919050565b600060208201905081810360008301526139ec81613321565b9050919050565b60006020820190508181036000830152613a0c81613387565b9050919050565b60006020820190508181036000830152613a2c816133ed565b9050919050565b60006020820190508181036000830152613a4c81613453565b9050919050565b60006020820190508181036000830152613a6c816134b9565b9050919050565b60006020820190508181036000830152613a8c8161351f565b9050919050565b60006020820190508181036000830152613aac81613585565b9050919050565b60006020820190508181036000830152613acc816135eb565b9050919050565b60006020820190508181036000830152613aec8161362b565b9050919050565b60006020820190508181036000830152613b0c8161366b565b9050919050565b6000602082019050613b2860008301846136d1565b92915050565b6000604051905081810181811067ffffffffffffffff82111715613b5157600080fd5b8060405250919050565b600067ffffffffffffffff821115613b7257600080fd5b601f19601f8301169050602081019050919050565b600067ffffffffffffffff821115613b9e57600080fd5b601f19601f8301169050602081019050919050565b600067ffffffffffffffff821115613bca57600080fd5b601f19601f8301169050602081019050919050565b600081519050919050565b600081519050919050565b600081519050919050565b600082825260208201905092915050565b600082825260208201905092915050565b600081905092915050565b6000613c3882613c77565b9050919050565b60008115159050919050565b60007fffffffff0000000000000000000000000000000000000000000000000000000082169050919050565b600073ffffffffffffffffffffffffffffffffffffffff82169050919050565b6000819050919050565b6000613cac82613cb3565b9050919050565b6000613cbe82613cc5565b9050919050565b6000613cd082613c77565b9050919050565b82818337600083830152505050565b60005b83811015613d04578082015181840152602081019050613ce9565b83811115613d13576000848401525b50505050565b6000601f19601f8301169050919050565b613d3381613c2d565b8114613d3e57600080fd5b50565b613d4a81613c3f565b8114613d5557600080fd5b50565b613d6181613c4b565b8114613d6c57600080fd5b50565b613d7881613c97565b8114613d8357600080fd5b5056fea365627a7a72315820ac11e0eda08c311f5d956253b69e33d179edbc22b17563d33a04f1306fe8e9f86c6578706572696d656e74616cf564736f6c63430005100040",
    "source": "pragma solidity ^0.5.0;\r\npragma experimental ABIEncoderV2;\r\n\r\nimport \"./BEP721Full.sol\";\r\n\r\ncontract Treedefi is BEP721Full {\r\n   \r\n  mapping(string => bool) public _isExists;\r\n  mapping(uint => Tree) public _treeData;\r\n  address private _owner;\r\n  uint private _treeCount;\r\n\r\n  /* baseURI for sending json metadata \r\n    \"https://hidden-woodland-17457.herokuapp.com/api/nfts/id/\"\r\n  */\r\n  string private _baseURI;\r\n\r\n   struct Tree {\r\n        string name;\r\n        string scientificName;\r\n        string dateOfBirth;\r\n        string country;\r\n        string placeOfBirth;\r\n        string placeOfResidence;\r\n        string longitude;\r\n        string latitude;\r\n        string treeId;\r\n        string url;\r\n        string imgURL;\r\n    }\r\n\r\n  constructor(string memory _URI) BEP721Full(\"Treedefi Forest\", \"FOREST\") public {\r\n    _owner = msg.sender;\r\n    _baseURI = _URI;\r\n  }\r\n\r\n  /**\r\n    * @dev Returns the address of treedefi owner.\r\n    */\r\n  function getOwner() external view returns (address) {\r\n        return _owner;\r\n  }\r\n\r\n  /**\r\n     * @dev Returns an URI for a given token ID.\r\n     * Throws if the token ID does not exist. May return an empty string.\r\n     * @param tokenId uint256 ID of the token to query\r\n     */\r\n  function tokenURI(uint256 tokenId) external view returns (string memory) {\r\n      require(\r\n        _exists(tokenId),\r\n        \" BEP721Metadata: URI query for nonexistent token \" \r\n      );\r\n\r\n      string memory _id = toString(tokenId);\r\n      \r\n      string memory _tokenURI = concat(_baseURI, _id);       \r\n        \r\n      return _tokenURI;\r\n  \r\n  }\r\n\r\n  /** \r\n    * @notice Change baseURI for tokenURI JSON metadata\r\n    * @param _URI string baseURI to change\r\n    */\r\n  function setBaseURI(string memory _URI) public {\r\n      require(\r\n        msg.sender == _owner,\r\n        \" Treedefi: Only Owner can set baseURI \"\r\n      );\r\n\r\n    _baseURI = _URI;\r\n\r\n  }\r\n\r\n  /** @dev Mint NFT and assign it to `owner`, increasing\r\n     * the total supply.\r\n     *@param _tree struct of value defining tree\r\n     */\r\n  function mint(Tree memory _tree) public { \r\n\r\n    require(\r\n      msg.sender == _owner,\r\n      \" Treedefi: Only Owner can mint the tokens \"\r\n      );\r\n\r\n    require(\r\n      ! _isExists[_tree.treeId],\r\n      \" Treedefi: token with similar tree ID already exists \"\r\n      );  \r\n    \r\n    \r\n    _treeCount++;\r\n\r\n    _mint(msg.sender, _treeCount);\r\n    \r\n    _isExists[_tree.treeId] = true;\r\n\r\n    _treeData[_treeCount] = _tree;\r\n\r\n  }\r\n\r\n\r\n/**\r\n  * To String\r\n  * \r\n  * Converts an unsigned integer to the ASCII string equivalent value\r\n  * \r\n  * @param _base The unsigned integer to be converted to a string\r\n  * @return string The resulting ASCII string value\r\n  */\r\n  function toString(uint _base)\r\n        internal\r\n        pure\r\n        returns (string memory) {\r\n        bytes memory _tmp = new bytes(32);\r\n        uint i;\r\n        for(i = 0;_base > 0;i++) {\r\n            _tmp[i] = byte(uint8((_base % 10) + 48));\r\n            _base /= 10;\r\n        }\r\n        bytes memory _real = new bytes(i--);\r\n        for(uint j = 0; j < _real.length; j++) {\r\n            _real[j] = _tmp[i--];\r\n        }\r\n        return string(_real);\r\n    }\r\n\r\n\r\n  /**\r\n    * Appends two strings together and returns a new value\r\n    * \r\n    * @param _base When being used for a data type this is the extended object\r\n    *              otherwise this is the string which will be the concatenated\r\n    *              prefix\r\n    * @param _value The value to be the concatenated suffix\r\n    * @return string The resulting string from combinging the base and value\r\n    */\r\n    function concat(string memory _base, string memory _value)\r\n        internal\r\n        pure\r\n        returns (string memory) {\r\n        bytes memory _baseBytes = bytes(_base);\r\n        bytes memory _valueBytes = bytes(_value);\r\n\r\n        assert(_valueBytes.length > 0);\r\n\r\n        string memory _tmpValue = new string(_baseBytes.length +\r\n            _valueBytes.length);\r\n        bytes memory _newValue = bytes(_tmpValue);\r\n\r\n        uint i;\r\n        uint j;\r\n\r\n        for (i = 0; i < _baseBytes.length; i++) {\r\n            _newValue[j++] = _baseBytes[i];\r\n        }\r\n\r\n        for (i = 0; i < _valueBytes.length; i++) {\r\n            _newValue[j++] = _valueBytes[i];\r\n        }\r\n\r\n        return string(_newValue);\r\n    }  \r\n\r\n}\r\n",
    "sourcePath": "C:\\Users\\Dhaval\\eth\\treeDeFi\\src\\contracts\\Treedefi.sol",
    "compiler": {
        "name": "solc",
        "version": "0.5.16+commit.9c3226ce.Emscripten.clang"
    },
    "schemaVersion": "3.3.3",
    "updatedAt": "2021-04-17T05:10:15.234Z",
    "devdoc": {
        "methods": {
            "approve(address,uint256)": {
                "details": "Approves another address to transfer the given token ID The zero address indicates there is no approved address. There can only be one approved address per token at a given time. Can only be called by the token owner or an approved operator.",
                "params": {
                    "to": "address to be approved for the given token ID",
                    "tokenId": "uint256 ID of the token to be approved"
                }
            },
            "balanceOf(address)": {
                "details": "Gets the balance of the specified address.",
                "params": {
                    "owner": "address to query the balance of"
                },
                "return": "uint256 representing the amount owned by the passed address"
            },
            "getApproved(uint256)": {
                "details": "Gets the approved address for a token ID, or zero if no address set Reverts if the token ID does not exist.",
                "params": {
                    "tokenId": "uint256 ID of the token to query the approval of"
                },
                "return": "address currently approved for the given token ID"
            },
            "getOwner()": {
                "details": "Returns the address of treedefi owner."
            },
            "isApprovedForAll(address,address)": {
                "details": "Tells whether an operator is approved by a given owner.",
                "params": {
                    "operator": "operator address which you want to query the approval of",
                    "owner": "owner address which you want to query the approval of"
                },
                "return": "bool whether the given operator is approved by the given owner"
            },
            "mint((string,string,string,string,string,string,string,string,string,string,string))": {
                "details": "Mint NFT and assign it to `owner`, increasing the total supply. param _tree struct of value defining tree"
            },
            "name()": {
                "details": "Gets the token name.",
                "return": "string representing the token name"
            },
            "ownerOf(uint256)": {
                "details": "Gets the owner of the specified token ID.",
                "params": {
                    "tokenId": "uint256 ID of the token to query the owner of"
                },
                "return": "address currently marked as the owner of the given token ID"
            },
            "safeTransferFrom(address,address,uint256)": {
                "details": "Safely transfers the ownership of a given token ID to another address If the target address is a contract, it must implement `onBEP721Received`, which is called upon a safe transfer, and return the magic value `bytes4(keccak256(\"onBEP721Received(address,address,uint256,bytes)\"))`; otherwise, the transfer is reverted. Requires the msg.sender to be the owner, approved, or operator",
                "params": {
                    "from": "current owner of the token",
                    "to": "address to receive the ownership of the given token ID",
                    "tokenId": "uint256 ID of the token to be transferred"
                }
            },
            "safeTransferFrom(address,address,uint256,bytes)": {
                "details": "Safely transfers the ownership of a given token ID to another address If the target address is a contract, it must implement `onBEP721Received`, which is called upon a safe transfer, and return the magic value `bytes4(keccak256(\"onBEP721Received(address,address,uint256,bytes)\"))`; otherwise, the transfer is reverted. Requires the msg.sender to be the owner, approved, or operator",
                "params": {
                    "_data": "bytes data to send along with a safe transfer check",
                    "from": "current owner of the token",
                    "to": "address to receive the ownership of the given token ID",
                    "tokenId": "uint256 ID of the token to be transferred"
                }
            },
            "setApprovalForAll(address,bool)": {
                "details": "Sets or unsets the approval of a given operator An operator is allowed to transfer all tokens of the sender on their behalf.",
                "params": {
                    "approved": "representing the status of the approval to be set",
                    "to": "operator address to set the approval"
                }
            },
            "setBaseURI(string)": {
                "params": {
                    "_URI": "string baseURI to change"
                }
            },
            "supportsInterface(bytes4)": {
                "details": "See `IBEP165.supportsInterface`.      * Time complexity O(1), guaranteed to always use less than 30 000 gas."
            },
            "symbol()": {
                "details": "Gets the token symbol.",
                "return": "string representing the token symbol"
            },
            "tokenByIndex(uint256)": {
                "details": "Gets the token ID at a given index of all the tokens in this contract Reverts if the index is greater or equal to the total number of tokens.",
                "params": {
                    "index": "uint256 representing the index to be accessed of the tokens list"
                },
                "return": "uint256 token ID at the given index of the tokens list"
            },
            "tokenOfOwnerByIndex(address,uint256)": {
                "details": "Gets the token ID at a given index of the tokens list of the requested owner.",
                "params": {
                    "index": "uint256 representing the index to be accessed of the requested tokens list",
                    "owner": "address owning the tokens list to be accessed"
                },
                "return": "uint256 token ID at the given index of the tokens list owned by the requested address"
            },
            "tokenURI(uint256)": {
                "details": "Returns an URI for a given token ID. Throws if the token ID does not exist. May return an empty string.",
                "params": {
                    "tokenId": "uint256 ID of the token to query"
                }
            },
            "totalSupply()": {
                "details": "Gets the total amount of tokens stored by the contract.",
                "return": "uint256 representing the total amount of tokens"
            },
            "transferFrom(address,address,uint256)": {
                "details": "Transfers the ownership of a given token ID to another address. Usage of this method is discouraged, use `safeTransferFrom` whenever possible. Requires the msg.sender to be the owner, approved, or operator.",
                "params": {
                    "from": "current owner of the token",
                    "to": "address to receive the ownership of the given token ID",
                    "tokenId": "uint256 ID of the token to be transferred"
                }
            }
        }
    },
    "userdoc": {
        "methods": {
            "setBaseURI(string)": {
                "notice": "Change baseURI for tokenURI JSON metadata"
            }
        }
    }
}